{
  "contractName": "MarketPlace",
  "abi": [
    {
      "anonymous": false,
      "inputs": [
        {
          "indexed": false,
          "internalType": "uint256",
          "name": "id",
          "type": "uint256"
        },
        {
          "indexed": false,
          "internalType": "string",
          "name": "title",
          "type": "string"
        },
        {
          "indexed": false,
          "internalType": "string",
          "name": "description",
          "type": "string"
        },
        {
          "indexed": false,
          "internalType": "uint256",
          "name": "price",
          "type": "uint256"
        },
        {
          "indexed": false,
          "internalType": "address payable",
          "name": "owner",
          "type": "address"
        },
        {
          "indexed": false,
          "internalType": "bool",
          "name": "purchased",
          "type": "bool"
        },
        {
          "indexed": false,
          "internalType": "string",
          "name": "location",
          "type": "string"
        },
        {
          "indexed": false,
          "internalType": "uint256",
          "name": "size",
          "type": "uint256"
        },
        {
          "indexed": false,
          "internalType": "uint256",
          "name": "nbRoom",
          "type": "uint256"
        },
        {
          "indexed": false,
          "internalType": "uint256",
          "name": "nbBedroom",
          "type": "uint256"
        },
        {
          "indexed": false,
          "internalType": "string",
          "name": "pictureUrl",
          "type": "string"
        }
      ],
      "name": "RealtyCreated",
      "type": "event"
    },
    {
      "anonymous": false,
      "inputs": [
        {
          "indexed": false,
          "internalType": "uint256",
          "name": "id",
          "type": "uint256"
        },
        {
          "indexed": false,
          "internalType": "string",
          "name": "title",
          "type": "string"
        },
        {
          "indexed": false,
          "internalType": "string",
          "name": "description",
          "type": "string"
        },
        {
          "indexed": false,
          "internalType": "uint256",
          "name": "price",
          "type": "uint256"
        },
        {
          "indexed": false,
          "internalType": "address payable",
          "name": "owner",
          "type": "address"
        },
        {
          "indexed": false,
          "internalType": "bool",
          "name": "purchased",
          "type": "bool"
        },
        {
          "indexed": false,
          "internalType": "string",
          "name": "location",
          "type": "string"
        },
        {
          "indexed": false,
          "internalType": "uint256",
          "name": "size",
          "type": "uint256"
        },
        {
          "indexed": false,
          "internalType": "uint256",
          "name": "nbRoom",
          "type": "uint256"
        },
        {
          "indexed": false,
          "internalType": "uint256",
          "name": "nbBedroom",
          "type": "uint256"
        },
        {
          "indexed": false,
          "internalType": "string",
          "name": "pictureUrl",
          "type": "string"
        }
      ],
      "name": "RealtySelled",
      "type": "event"
    },
    {
      "constant": true,
      "inputs": [],
      "name": "itemCount",
      "outputs": [
        {
          "internalType": "uint256",
          "name": "",
          "type": "uint256"
        }
      ],
      "payable": false,
      "stateMutability": "view",
      "type": "function"
    },
    {
      "constant": true,
      "inputs": [
        {
          "internalType": "uint256",
          "name": "",
          "type": "uint256"
        }
      ],
      "name": "realties",
      "outputs": [
        {
          "internalType": "uint256",
          "name": "id",
          "type": "uint256"
        },
        {
          "internalType": "string",
          "name": "title",
          "type": "string"
        },
        {
          "internalType": "string",
          "name": "description",
          "type": "string"
        },
        {
          "internalType": "uint256",
          "name": "price",
          "type": "uint256"
        },
        {
          "internalType": "address payable",
          "name": "owner",
          "type": "address"
        },
        {
          "internalType": "bool",
          "name": "purchased",
          "type": "bool"
        },
        {
          "internalType": "string",
          "name": "location",
          "type": "string"
        },
        {
          "internalType": "uint256",
          "name": "size",
          "type": "uint256"
        },
        {
          "internalType": "uint256",
          "name": "nbRoom",
          "type": "uint256"
        },
        {
          "internalType": "uint256",
          "name": "nbBedroom",
          "type": "uint256"
        },
        {
          "internalType": "string",
          "name": "pictureUrl",
          "type": "string"
        }
      ],
      "payable": false,
      "stateMutability": "view",
      "type": "function"
    },
    {
      "constant": false,
      "inputs": [
        {
          "internalType": "string",
          "name": "_title",
          "type": "string"
        },
        {
          "internalType": "string",
          "name": "_description",
          "type": "string"
        },
        {
          "internalType": "string",
          "name": "_location",
          "type": "string"
        },
        {
          "internalType": "uint256",
          "name": "_size",
          "type": "uint256"
        },
        {
          "internalType": "uint256",
          "name": "_nbRoom",
          "type": "uint256"
        },
        {
          "internalType": "uint256",
          "name": "_nbBedroom",
          "type": "uint256"
        },
        {
          "internalType": "uint256",
          "name": "_price",
          "type": "uint256"
        },
        {
          "internalType": "string",
          "name": "_pictureUrl",
          "type": "string"
        }
      ],
      "name": "sell",
      "outputs": [],
      "payable": false,
      "stateMutability": "nonpayable",
      "type": "function"
    },
    {
      "constant": false,
      "inputs": [
        {
          "internalType": "uint256",
          "name": "_id",
          "type": "uint256"
        }
      ],
      "name": "purchase",
      "outputs": [],
      "payable": true,
      "stateMutability": "payable",
      "type": "function"
    }
  ],
  "bytecode": "0x60806040526000805534801561001457600080fd5b5061165d806100246000396000f3fe60806040526004361061003f5760003560e01c80635e30ce43146100445780636bfb0d01146102fa578063eaca6c5314610325578063efef39a11461057e575b600080fd5b34801561005057600080fd5b506102f8600480360361010081101561006857600080fd5b810190808035906020019064010000000081111561008557600080fd5b82018360208201111561009757600080fd5b803590602001918460018302840111640100000000831117156100b957600080fd5b91908080601f016020809104026020016040519081016040528093929190818152602001838380828437600081840152601f19601f8201169050808301925050505050505091929192908035906020019064010000000081111561011c57600080fd5b82018360208201111561012e57600080fd5b8035906020019184600183028401116401000000008311171561015057600080fd5b91908080601f016020809104026020016040519081016040528093929190818152602001838380828437600081840152601f19601f820116905080830192505050505050509192919290803590602001906401000000008111156101b357600080fd5b8201836020820111156101c557600080fd5b803590602001918460018302840111640100000000831117156101e757600080fd5b91908080601f016020809104026020016040519081016040528093929190818152602001838380828437600081840152601f19601f820116905080830192505050505050509192919290803590602001909291908035906020019092919080359060200190929190803590602001909291908035906020019064010000000081111561027257600080fd5b82018360208201111561028457600080fd5b803590602001918460018302840111640100000000831117156102a657600080fd5b91908080601f016020809104026020016040519081016040528093929190818152602001838380828437600081840152601f19601f8201169050808301925050505050505091929192905050506105ac565b005b34801561030657600080fd5b5061030f6109be565b6040518082815260200191505060405180910390f35b34801561033157600080fd5b5061035e6004803603602081101561034857600080fd5b81019080803590602001909291905050506109c4565b604051808c815260200180602001806020018b81526020018a73ffffffffffffffffffffffffffffffffffffffff1673ffffffffffffffffffffffffffffffffffffffff16815260200189151515158152602001806020018881526020018781526020018681526020018060200185810385528f818151815260200191508051906020019080838360005b838110156104045780820151818401526020810190506103e9565b50505050905090810190601f1680156104315780820380516001836020036101000a031916815260200191505b5085810384528e818151815260200191508051906020019080838360005b8381101561046a57808201518184015260208101905061044f565b50505050905090810190601f1680156104975780820380516001836020036101000a031916815260200191505b5085810383528a818151815260200191508051906020019080838360005b838110156104d05780820151818401526020810190506104b5565b50505050905090810190601f1680156104fd5780820380516001836020036101000a031916815260200191505b50858103825286818151815260200191508051906020019080838360005b8381101561053657808201518184015260208101905061051b565b50505050905090810190601f1680156105635780820380516001836020036101000a031916815260200191505b509f5050505050505050505050505050505060405180910390f35b6105aa6004803603602081101561059457600080fd5b8101908080359060200190929190505050610cab565b005b60008851116105ba57600080fd5b600082116105c757600080fd5b600080815480929190600101919050555060405180610160016040528060005481526020018981526020018881526020018381526020013373ffffffffffffffffffffffffffffffffffffffff168152602001600015158152602001878152602001868152602001858152602001848152602001828152506001600080548152602001908152602001600020600082015181600001556020820151816001019080519060200190610679929190611511565b506040820151816002019080519060200190610696929190611511565b506060820151816003015560808201518160040160006101000a81548173ffffffffffffffffffffffffffffffffffffffff021916908373ffffffffffffffffffffffffffffffffffffffff16021790555060a08201518160040160146101000a81548160ff02191690831515021790555060c0820151816005019080519060200190610724929190611511565b5060e0820151816006015561010082015181600701556101208201518160080155610140820151816009019080519060200190610762929190611511565b509050507f498397267064b31262ce2d51a513ec22f016904d50915060e1565699ff6aed186000548989853360008c8c8c8c8b604051808c815260200180602001806020018b81526020018a73ffffffffffffffffffffffffffffffffffffffff1673ffffffffffffffffffffffffffffffffffffffff16815260200189151515158152602001806020018881526020018781526020018681526020018060200185810385528f818151815260200191508051906020019080838360005b8381101561083b578082015181840152602081019050610820565b50505050905090810190601f1680156108685780820380516001836020036101000a031916815260200191505b5085810384528e818151815260200191508051906020019080838360005b838110156108a1578082015181840152602081019050610886565b50505050905090810190601f1680156108ce5780820380516001836020036101000a031916815260200191505b5085810383528a818151815260200191508051906020019080838360005b838110156109075780820151818401526020810190506108ec565b50505050905090810190601f1680156109345780820380516001836020036101000a031916815260200191505b50858103825286818151815260200191508051906020019080838360005b8381101561096d578082015181840152602081019050610952565b50505050905090810190601f16801561099a5780820380516001836020036101000a031916815260200191505b509f5050505050505050505050505050505060405180910390a15050505050505050565b60005481565b6001602052806000526040600020600091509050806000015490806001018054600181600116156101000203166002900480601f016020809104026020016040519081016040528092919081815260200182805460018160011615610100020316600290048015610a765780601f10610a4b57610100808354040283529160200191610a76565b820191906000526020600020905b815481529060010190602001808311610a5957829003601f168201915b505050505090806002018054600181600116156101000203166002900480601f016020809104026020016040519081016040528092919081815260200182805460018160011615610100020316600290048015610b145780601f10610ae957610100808354040283529160200191610b14565b820191906000526020600020905b815481529060010190602001808311610af757829003601f168201915b5050505050908060030154908060040160009054906101000a900473ffffffffffffffffffffffffffffffffffffffff16908060040160149054906101000a900460ff1690806005018054600181600116156101000203166002900480601f016020809104026020016040519081016040528092919081815260200182805460018160011615610100020316600290048015610bf15780601f10610bc657610100808354040283529160200191610bf1565b820191906000526020600020905b815481529060010190602001808311610bd457829003601f168201915b505050505090806006015490806007015490806008015490806009018054600181600116156101000203166002900480601f016020809104026020016040519081016040528092919081815260200182805460018160011615610100020316600290048015610ca15780601f10610c7657610100808354040283529160200191610ca1565b820191906000526020600020905b815481529060010190602001808311610c8457829003601f168201915b505050505090508b565b610cb3611591565b600160008381526020019081526020016000206040518061016001604052908160008201548152602001600182018054600181600116156101000203166002900480601f016020809104026020016040519081016040528092919081815260200182805460018160011615610100020316600290048015610d755780601f10610d4a57610100808354040283529160200191610d75565b820191906000526020600020905b815481529060010190602001808311610d5857829003601f168201915b50505050508152602001600282018054600181600116156101000203166002900480601f016020809104026020016040519081016040528092919081815260200182805460018160011615610100020316600290048015610e175780601f10610dec57610100808354040283529160200191610e17565b820191906000526020600020905b815481529060010190602001808311610dfa57829003601f168201915b50505050508152602001600382015481526020016004820160009054906101000a900473ffffffffffffffffffffffffffffffffffffffff1673ffffffffffffffffffffffffffffffffffffffff1673ffffffffffffffffffffffffffffffffffffffff1681526020016004820160149054906101000a900460ff16151515158152602001600582018054600181600116156101000203166002900480601f016020809104026020016040519081016040528092919081815260200182805460018160011615610100020316600290048015610f345780601f10610f0957610100808354040283529160200191610f34565b820191906000526020600020905b815481529060010190602001808311610f1757829003601f168201915b50505050508152602001600682015481526020016007820154815260200160088201548152602001600982018054600181600116156101000203166002900480601f016020809104026020016040519081016040528092919081815260200182805460018160011615610100020316600290048015610ff45780601f10610fc957610100808354040283529160200191610ff4565b820191906000526020600020905b815481529060010190602001808311610fd757829003601f168201915b5050505050815250509050600081608001519050600082600001511161101957600080fd5b816060015134101561102a57600080fd5b8160a001511561103957600080fd5b3373ffffffffffffffffffffffffffffffffffffffff168173ffffffffffffffffffffffffffffffffffffffff1614156110db576040517f08c379a000000000000000000000000000000000000000000000000000000000815260040180806020018281038252601f8152602001807f53656c6c65722063616e27742062757920686973206f776e207265616c74790081525060200191505060405180910390fd5b33826080019073ffffffffffffffffffffffffffffffffffffffff16908173ffffffffffffffffffffffffffffffffffffffff168152505060018260a0019015159081151581525050816001600085815260200190815260200160002060008201518160000155602082015181600101908051906020019061115e929190611511565b50604082015181600201908051906020019061117b929190611511565b506060820151816003015560808201518160040160006101000a81548173ffffffffffffffffffffffffffffffffffffffff021916908373ffffffffffffffffffffffffffffffffffffffff16021790555060a08201518160040160146101000a81548160ff02191690831515021790555060c0820151816005019080519060200190611209929190611511565b5060e0820151816006015561010082015181600701556101208201518160080155610140820151816009019080519060200190611247929190611511565b509050508073ffffffffffffffffffffffffffffffffffffffff166108fc349081150290604051600060405180830381858888f19350505050158015611291573d6000803e3d6000fd5b507f7a2e7408ece3a6d38dd7350d848482938f01014f98c3fe086001814b4411bc84826000015183602001518460400151856060015186608001518760a001518860c001518960e001518a61010001518b61012001518c6101400151604051808c815260200180602001806020018b81526020018a73ffffffffffffffffffffffffffffffffffffffff1673ffffffffffffffffffffffffffffffffffffffff16815260200189151515158152602001806020018881526020018781526020018681526020018060200185810385528f818151815260200191508051906020019080838360005b83811015611393578082015181840152602081019050611378565b50505050905090810190601f1680156113c05780820380516001836020036101000a031916815260200191505b5085810384528e818151815260200191508051906020019080838360005b838110156113f95780820151818401526020810190506113de565b50505050905090810190601f1680156114265780820380516001836020036101000a031916815260200191505b5085810383528a818151815260200191508051906020019080838360005b8381101561145f578082015181840152602081019050611444565b50505050905090810190601f16801561148c5780820380516001836020036101000a031916815260200191505b50858103825286818151815260200191508051906020019080838360005b838110156114c55780820151818401526020810190506114aa565b50505050905090810190601f1680156114f25780820380516001836020036101000a031916815260200191505b509f5050505050505050505050505050505060405180910390a1505050565b828054600181600116156101000203166002900490600052602060002090601f016020900481019282601f1061155257805160ff1916838001178555611580565b82800160010185558215611580579182015b8281111561157f578251825591602001919060010190611564565b5b50905061158d9190611603565b5090565b60405180610160016040528060008152602001606081526020016060815260200160008152602001600073ffffffffffffffffffffffffffffffffffffffff16815260200160001515815260200160608152602001600081526020016000815260200160008152602001606081525090565b61162591905b80821115611621576000816000905550600101611609565b5090565b9056fea265627a7a72315820c3a5b105822eeb74bb486fb318166dc68eca341e72b0057e56b2025fa877f32764736f6c63430005100032",
  "source": "// SPDX-License-Identifier: MIT\r\npragma solidity >=0.4.22 <0.9.0;\r\n\r\ncontract MarketPlace{\r\n    uint public itemCount = 0;\r\n    mapping (uint => Realty) public realties;\r\n    struct Other{\r\n        string title;\r\n        string info;\r\n    }\r\n    struct Realty {\r\n        uint id;\r\n        string title;\r\n        string description;\r\n        uint price;\r\n        address payable owner;\r\n        bool purchased;\r\n        string location;\r\n        uint256 size;\r\n        uint nbRoom;\r\n        uint nbBedroom;\r\n        string pictureUrl;\r\n        //Other[] others;\r\n    \r\n    }\r\n    event RealtyCreated(\r\n        uint id,\r\n        string title,\r\n        string description,\r\n        uint price,\r\n        address payable owner,\r\n        bool purchased,\r\n        string location,\r\n        uint256 size,\r\n        uint nbRoom,\r\n        uint nbBedroom,\r\n        string pictureUrl//,\r\n        //Other[] others\r\n    );\r\n\r\n    event RealtySelled(\r\n        uint id,\r\n        string title,\r\n        string description,\r\n        uint price,\r\n        address payable owner,\r\n        bool purchased,\r\n        string location,\r\n        uint256 size,\r\n        uint nbRoom,\r\n        uint nbBedroom,\r\n        string pictureUrl\r\n        //Other[] others\r\n    );\r\n\r\n    function sell(string memory _title, string memory _description, string memory _location, uint _size, uint _nbRoom, uint _nbBedroom, uint _price, string memory _pictureUrl) public {\r\n        require(bytes(_title).length > 0);\r\n        require(_price > 0);\r\n        itemCount++;\r\n        //realties.size\r\n        realties[itemCount] = Realty(itemCount, _title, _description, _price, msg.sender, false, _location, _size, _nbRoom, _nbBedroom, _pictureUrl);\r\n        emit RealtyCreated(itemCount, _title, _description, _price, msg.sender, false, _location, _size, _nbRoom, _nbBedroom, _pictureUrl);\r\n\r\n    }\r\n    function purchase(uint _id) public payable {\r\n        Realty memory _realty = realties[_id];\r\n        // Fetch the Owner\r\n        address payable _seller = _realty.owner;\r\n        require(_realty.id > 0);\r\n        require(msg.value >= _realty.price);\r\n        // Check the realty not be purchased before\r\n        require(!_realty.purchased);\r\n        require(_seller != msg.sender, \"Seller can't buy his own realty\");\r\n        // Transfer the ownership to buyer\r\n        _realty.owner = msg.sender;\r\n        _realty.purchased = true;\r\n        //delete realties[_id];\r\n        realties[_id] = _realty;\r\n        // Pay the seller\r\n        address(uint160(_seller)).transfer(msg.value);\r\n        // Trigger the event        \r\n        emit RealtySelled(_realty.id, _realty.title, _realty.description, _realty.price, _realty.owner, _realty.purchased, _realty.location, _realty.size, _realty.nbRoom, _realty.nbBedroom, _realty.pictureUrl);\r\n    }\r\n\r\n}",
  "sourcePath": "C:/Users/Stephane/Documents/ESGI/4ALJ/2Sem/blockchain/CryptoESGI/contracts/MarketPlace.sol",
  "compiler": {
    "name": "solc",
    "version": "0.5.16+commit.9c3226ce.Emscripten.clang"
  },
  "schemaVersion": "3.3.3",
  "updatedAt": "2021-01-21T17:22:42.072Z",
  "networkType": "ethereum",
  "devdoc": {
    "methods": {}
  },
  "userdoc": {
    "methods": {}
  }
}